:020000040800F2
:10000000E8080020CD0100086D1F00083D1B000816
:10001000691F0008D1030008CD230008000000007C
:100020000000000000000000000000001120000897
:10003000D503000800000000E11F0008452000086B
:10004000E7010008E7010008E7010008E7010008F0
:10005000E7010008E7010008E7010008E7010008E0
:10006000E7010008E7010008E7010008E7010008D0
:10007000E7010008E7010008E7010008E7010008C0
:10008000E7010008E7010008E7010008E7010008B0
:10009000E7010008E7010008E7010008E7010008A0
:1000A000E7010008E7010008E7010008E701000890
:1000B000E7010008E7010008E7010008E701000880
:1000C000E7010008E7010008E7010008E701000870
:1000D000E7010008E7010008E7010008E701000860
:1000E000E7010008E7010008E7010008E701000850
:1000F000E7010008E7010008E7010008E701000840
:10010000E7010008E7010008E7010008E70100082F
:10011000E7010008E7010008E9200008F9200008CD
:10012000E7010008E7010008E7010008E70100080F
:1001300000F002F800F03AF80AA090E8000C8244BF
:100140008344AAF10107DA4501D100F02FF8AFF29C
:10015000090EBAE80F0013F0010F18BFFB1A43F0A5
:10016000010318472823000048230000103A24BF49
:1001700078C878C1FAD8520724BF30C830C144BF0C
:1001800004680C607047000000230024002500264E
:10019000103A28BF78C1FBD8520728BF30C148BFEA
:1001A0000B6070471FB51FBD10B510BD00F058F8AB
:1001B0001146FFF7F7FF02F045F900F076F803B4B7
:1001C000FFF7F2FF03BC00F07DF80000094880470C
:1001D00009480047FEE7FEE7FEE7FEE7FEE7FEE729
:1001E000FEE7FEE7FEE7FEE704480549054A064B41
:1001F00070470000CD20000831010008E80200200F
:10020000E8080020E8040020E80400204FF0000285
:1002100000B5134694469646203922BFA0E80C50FC
:10022000A0E80C50B1F12001BFF4F7AF090728BFD7
:10023000A0E80C5048BF0CC05DF804EB890028BF53
:1002400040F8042B08BF704748BF20F8022B11F07C
:10025000804F18BF00F8012B7047704770477047F8
:10026000754600F02BF8AE4605006946534620F06F
:100270000700854618B020B5FFF7B6FFBDE820405F
:100280004FF000064FF000074FF000084FF0000B52
:10029000AC46ACE8C009ACE8C009ACE8C009ACE8C1
:1002A000C00921F007018D46704710B50446AFF331
:1002B00000802046BDE81040FFF781BF004870472E
:1002C0001000002001491820ABBEFEE72600020006
:1002D00070470000B0B5044600688168C90709D0BE
:1002E000816821F00101816000F0A4FB2168896828
:1002F000C90701D10020B0BD054603E02068806831
:10030000C007F7D000F096FB401B0328F6D3206807
:100310008068C007F2D0A06A40F01000A062E06AD6
:1003200040F00100E0620120B0BD0000B0B582B035
:1003300004460020019021688A68D2073DD1886870
:1003400040F00100886040F20000C2F20000006846
:100350004DF68361C4F21B31A0FB0101880C00BF84
:100360000190019810B101980138F9E700F062FBA3
:1003700021688968C9071CD1054603E020688068A8
:10038000C00719D100F056FB401B0328F6D32068A4
:100390008068C007F2D1A06A40F01000A062E06A55
:1003A00040F00100E062002084F82400012002B047
:1003B000B0BD002002B0B0BD002002B0B0BD000052
:1003C00080B540F27000C2F2000000F065F880BD18
:1003D000FEE700007047000080B540F23010C2F226
:1003E00000003C2101F02CF940F27810C2F200002C
:1003F0003C2101F025F980BDEFF3108072B600BFFB
:10040000FEE7000010B540F60044C4F201042046A7
:100410000121012200F008FB20460221002200F009
:1004200003FB20460421012200F0FEFA20460821A9
:10043000002200F0F9FA10BD80B582B040F2301011
:10044000C2F20000006840F27811426AC2F2000174
:10045000096800924B6A4EF6612E4FF6E37C7245B6
:10046000CFF6FE7C0193A4BF624400927345A4BF03
:1004700003EB0C020192002242624A62009840F2B1
:100480005021C2F200010860019840F29821C2F2A6
:100490000001086002B080BD70B582B00446002043
:1004A000019094F82400012801D102256AE001207E
:1004B00084F824002046FFF70DFF054600285ED192
:1004C000A06A41F2021188430230A06240F20000AB
:1004D000C2F200000668022000F036FBB6FBF0F026
:1004E000400000BF0190019810B101980138F9E770
:1004F0002046FFF71BFF2068816841F008018160FA
:1005000000F098FA216851F8082F120712D5064614
:1005100004E000BF20688168090709D500F08AFA65
:10052000801B0B28F6D3206880680007F2D51EE0F8
:1005300000F10801086840F00400086000F07AFA51
:1005400021688968490703D401206FF0030112E094
:10055000064603E0206880684007F5D500F06AFA97
:10056000801B0B28F6D3206880684007F2D5012550
:1005700010206FF01201A26A11400843A06200200F
:1005800084F82400284602B070BD000070B581B028
:100590000022009290F82420012A01D1022177E064
:1005A0004A680123062A80F8243005D803686FF0D2
:1005B000040C03F1340E0AE003680C2A87BF03F130
:1005C0002C0E6FF0400C03F1300E6FF0220C02EB9A
:1005D0008202DEF8005062441F230C68934025EA33
:1005E000030304FA02F21A43CEF800200E68D0F892
:1005F00000E006EB46051024092E88BF1E3D88BF8B
:100600000C245EF8042007238968AB409A43A94074
:1006100011434EF8041026F001014FF0000C102990
:100620004FF0000132D142F20041C4F201018E4587
:1006300005D0816A41F020018162012126E08968AC
:10064000090222D4DEF80810102E41F40001CEF881
:1006500008101AD140F20001C2F2000109684DF6FB
:100660008362C4F21B32A1FB0212910C01EB8101E7
:1006700049000091009941B1009901390091009918
:1006800000294FF00001F7D100E0002180F824C0DC
:10069000084601B070BD0000002804BF012070476B
:1006A0002DE9F0418046044658F8280F30B9002063
:1006B000E06284F82400204600F08EF82046FFF720
:1006C00009FEA26AA16A002808BF12F0100206D033
:1006D00041F010010120C8F80010BDE8F08141F29E
:1006E000021291430231A162D4E90013E66981F05C
:1006F0008045A26885F49E3586F440272F4308BFC5
:100700004FF4002646EA0307531EB3FA83F35E094B
:100710001346B2F5807F18BF3302267D257B012E5C
:1007200047EA450C13D145B1A76A47F02007A762F5
:10073000E76A47F00107E76209E0A7694EF20006A1
:10074000CFF6FF7606EB47373B4343F400634F6831
:10075000B2F5807F27F4694743EA07034B608B6853
:100760004FF2FD77CFF6E17703EA070343EA0C0384
:100770008B6001D0012A06D122690023CFF6F073E5
:1007800003EB025200E00022CB6A23F470031A4309
:10079000CA62896840F6FE62CFF61F721140614559
:1007A00009D10021E162A16A012262F30101C8F8C6
:1007B0000010BDE8F081A06A40F0100020F00200B7
:1007C000A06254F82C0F40F001010120A046C8F8A7
:1007D0000010BDE8F081000080B586B0014640F60B
:1007E0000000C4F20100096800F5E05291424FF0A8
:1007F0000001CDE90411CDE9021101D006B080BDA0
:1008000041F21801C4F202010A6842F400720A605F
:100810000A6802F400720192019A0A6842F0040226
:100820000A60096801F0040101910199C021029157
:100830000321039102A900F003F806B080BD000077
:100840002DE9F04F83B00C68002C00F0EA80A0F195
:100850008042A2F5843240F2004E4FEAB22241F6C5
:100860000047C4F2010E0092C4F2010706220025DF
:100870004FF001094FF0000B4FF0000AB84208BFDB
:100880000522019209E000BF0C680BF1010B34FA5C
:100890000BF205F1040500F0C48009FA0BF814EA24
:1008A000080CF1D04C684FF6FF72C1F2100294426E
:1008B00010DC122C50D8DFE804F0330A41454F4FCA
:1008C0004F4F4F4F4F4F4F4F4F4F4F484C00D1F866
:1008D0000CA041E04FF6FF72C1F2210294420FDCFE
:1008E0000022C1F2110294421AD00022C1F2120277
:1008F000944215D00022C1F22102944210D02BE084
:100900000022C1F2220294420AD00022C1F2310236
:10091000944205D00022C1F2320294421CD100BFA1
:100920008C6844B1012C14BFC0F81480C0F810804A
:100930004FF0080A10E04FF0040A0DE0CC6804F113
:10094000080A09E04FF0000A06E0CC6804F1040A46
:1009500002E0CC6804F10C0A2C460746BCF5807F07
:1009600024BF203C04373A680F2303FA04F6B2434D
:100970000AFA04F422433A60CA79D2067FF584AFBA
:1009800041F21804C4F2020422684FF6084842F00B
:10099000010222602268CFF6FF7802F00102029283
:1009A000029A2BF00302724452F8084005F00C063C
:1009B00003FA06F7009BBC43019F052B38BF1F4677
:1009C00007FA06F6344342F808404C68E203DEF8C2
:1009D000002054BF22EA0C0742EA0C07A203CEF81B
:1009E0000070DEF8042054BF22EA0C0742EA0C072C
:1009F000E202CEF80470DEF8082054BF22EA0C07A9
:100A000042EA0C07A20240F20C44CEF80870C4F28D
:100A10000104226854BF22EA0C0242EA0C0222605E
:100A200032E703B0BDE8F08F002A08BF0904016176
:100A30007047000040F2E020C2F2000000687047FA
:100A400040F2040040F2E021C2F20000C2F20001D4
:100A500000780A68104408607047000080B542F2D0
:100A60000000C4F20200016841F01001016003209F
:100A700000F066F8002000F005F800F02BF80020E8
:100A800080BD0000B0B540F20402C2F2000240F2A4
:100A900000011278C2F200014FF47A730968B3FBC7
:100AA000F2F20446B1FBF2F1084600F0E7FB0F2C2E
:100AB0004FF001050CD858B94FF0FF302146002205
:100AC000002500F02DF840F20800C2F2000004609A
:100AD0002846B0BD82B041F21800C4F2020001689D
:100AE000022241F001010160016801F00101019160
:100AF0000199416841F080514160406800F08050A8
:100B0000009000980420C4F20100016862F31A61A9
:100B1000016002B07047000080B501F059FC80BD53
:100B200070B514460D46064601F062FC2946224681
:100B300001F01EFA0146304601F062FC70BD000073
:100B400080B501F06FFC80BD80B5411E0F294FF0CC
:100B5000000043D8DFE801F00B344208424242086B
:100B6000424242424242424300F0CEF980BD41F24D
:100B70000400C4F20200C16940F202320A40B2F538
:100B8000817F04BF4FF4004080BD01F44071B1F596
:100B9000407F0DD0B1F5007F51D1026A920744BF6A
:100BA00049F6404080BDB1F5407F1CBF002080BDAC
:100BB00050F8040C4FF22441800301EAE07080BD3C
:100BC00000F090F941F20401C4F202010968022226
:100BD000C1F3813102EB4101B0FBF1F080BD41F284
:100BE0000401C4F202010A6851F8040CC0015CBFA0
:100BF000002080BDC2F3834012A3185CD20305D449
:100C000040F60012C0F23D0250430BE00A6811A307
:100C1000C2F340429A5C41F20023C0F27A03B3FB74
:100C2000F2F250430968490248BF80BD4AF6AB2141
:100C30004000CAF6AA21A0FB0101480880BD00209F
:100C400080BD00BF02030405060708090A0B0C0D4E
:100C50000E0F1010010200002DE9F04182B0044691
:100C6000007841F21C06C007C4F202064ED030687C
:100C7000C0000BD430684FF0010840F08050306065
:100C8000306800F080500190019801E04FF00008BA
:100C900047F20007C4F200073868C00512D438686C
:100CA00040F480703860FFF7C5FE05463868C0051F
:100CB00008D4FFF7BFFE401B6428F7D9032002B019
:100CC000BDE8F081706810F4407012D0616801F4E2
:100CD000407188420DD0706840F24042C4F2422216
:100CE000012320F4407113600023C007136071607A
:100CF00029D17068616820F440700843B8F1000F92
:100D0000706003D0306820F0805030602068810728
:100D100007D556F8181CA26821F44041114346F843
:100D2000181CC00603D4002002B0BDE8F08156F8BC
:100D3000180C616920F48000084346F8180C002064
:100D400002B0BDE8F081FFF775FE054641F2883735
:100D500070688007CDD4FFF76DFE401BB8424FF09E
:100D60000300F5D9ECE700002DE9F04381B000283D
:100D700000F0878042F20008C4F202080446D8F866
:100D800000000D4600F0070088420CD2D8F80000A1
:100D900020F007002843C8F80000D8F8000000F051
:100DA0000700A8426DD1206841F204098107C4F20E
:100DB000020917D5410705D5D9F8001041F4E061C3
:100DC000C9F80010010705D5D9F8001041F46051A9
:100DD000C9F80010D9F80010A26821F0F001114301
:100DE000C9F80010C00745D1D8F8000000F007008E
:100DF000A8420CD9D8F8000020F007002843C8F812
:100E00000000D8F8000000F00700A84239D120689F
:100E1000410707D5D9F80010E26821F4E0611143D9
:100E2000C9F80010000708D5D9F80000216920F49E
:100E3000605040EAC100C9F8000000F065F8D9F838
:100E4000001042F27242C1F30311C0F60002515C7D
:100E500040F2000220FA01F140F20800C2F2000064
:100E60000068C2F200021160FFF70CFE002001B022
:100E7000BDE8F0836068012807D159F8041C890394
:100E80000CD4012001B0BDE8F08359F8041C0228FD
:100E900002D18901F5D501E08907F2D5D9F8001012
:100EA00021F003010843C9F80000FFF7C3FD06461F
:100EB00041F28837D9F80000616800F00C00B0EB0F
:100EC000810F91D0FFF7B6FD801BB842F2D9032005
:100ED00001B0BDE8F083000040F20000C2F2000063
:100EE0000068704780B5FFF7F7FF41F20401C4F2D4
:100EF0000201096842F28242C1F3C221C0F6000237
:100F0000515CC84080BD000041F2040CC4F2020CE8
:100F1000DCF8003003F00C00082841F20020C0F299
:100F20007A0018BF7047C3F383420AA18A5CD903D1
:100F300005D440F60010C0F23D0050437047DCF885
:100F4000001008A3C1F34041595C5043B0FBF1F0DD
:100F5000704700BF02030405060708090A0B0C0DC1
:100F60000E0F1010010200002DE9F04182B00028A0
:100F700000F0C4800446007841F20006C007C4F2C5
:100F8000020643D0706800F00C00042817D0706887
:100F900000F00C00082802D17068C0030FD4656807
:100FA0009DB1B5F5803F06D03068B5F5A02F0DD1C5
:100FB00040F480203060306840F480300CE03068CD
:100FC000800323D5606808BB98E0306820F4803047
:100FD0003060306820F480203060FFF72BFD002D5A
:100FE000054610D03068800310D4FFF723FD401B66
:100FF0006428F7D908E100BFFFF71CFD401B6428F7
:101000004FF0030077D830688003F5D4207880074C
:1010100018D5706810F00C0F07D0706800F00C0045
:10102000082826D17068C00323D43068800702D511
:101030002069012862D13068616920F0F80040EA37
:10104000C1003060207800073DD5A06938B300208A
:10105000C4F242200121C0F88014FFF7EBFC0546E2
:10106000706A80072DD4FFF7E5FC401B0228F7D9F2
:10107000CAE02069002840F20000C4F2422000F0DB
:101080009A8001210160FFF7D5FC05463068800792
:10109000D1D4FFF7CFFC401B0228F7D9B4E00020E1
:1010A000C4F242200021C0F88014FFF7C3FC0546BB
:1010B000706A800707D5FFF7BDFC401B0228F7D9EF
:1010C000A2E000F08FFF207840071BD4E5698DB1C6
:1010D000706800F00C0008284CD1012D0ED070680B
:1010E000216A00F480328A4208D1616A00F47010EB
:1010F000884203D1002002B0BDE8F081012002B097
:10110000BDE8F081F069C0000BD4F0694FF0010830
:1011100040F08050F061F06900F08050019001983B
:1011200001E04FF0000847F20007C4F200073868FA
:10113000C00510D4386840F480703860FFF77AFC3E
:10114000054600BF3868C00505D4FFF773FC401B97
:101150006428F7D958E0E568002D3DD0012D05D071
:10116000306A052D39D140F004003062306A40F019
:10117000010038E00027C4F2422700203866FFF75C
:1011800059FC022D05460BD13068800154D5FFF77C
:1011900051FC401B02284FF00300F5D9ABE700BF1C
:1011A00030688001A6D5FFF745FC401B02284FF0B0
:1011B0000300F5D99FE700210160FFF73BFC0546DE
:1011C000306880077FF53EAFFFF734FC401B0228F4
:1011D0004FF00300F4D98EE7306A20F0010030624E
:1011E000306A20F004003062FFF724FC002D054631
:1011F00041F2883714D000BF306A800713D4FFF75C
:1012000019FC401BB842F7D9032002B0BDE8F081B9
:10121000FFF710FC401BB8424FF003003FF66BAFE6
:10122000306A8007F4D4B8F1000F3FF44FAFF06993
:1012300020F08050F06149E7206AB0F5803F05D189
:101240007168A26821F40031114371607168626AAB
:1012500021F4741110430843706001203866FFF7D1
:10126000E9FB0446306880013FF544AFFFF7E2FB3D
:10127000001B02284FF00300F4D93CE780B500F0D2
:10128000C9FE80BD7047000070470000B0B590F8FF
:101290003C20012A04BF0220B0BD01F108053CCD6D
:1012A000D1E900CE23F47C5322F470521A432EF479
:1012B000F0431A432CF4E0431A4324F4C0431A4386
:1012C0002A43C96922F4804203681143596400210A
:1012D00080F83C100846B0BD10B590F83C20012ABB
:1012E0004FF0020241D0012380F83C3080F83D20CD
:1012F0000268D2F804E0D2F808C00C682EF070033F
:10130000234340F6FF34C4F20004A24253600FDCD2
:10131000B2F1804F1ED040F20043C4F200039A4263
:1013200018D040F60003C4F200039A4212D016E02F
:1013300040F60043C4F200039A420BD043F200434C
:10134000C4F201039A4205D042F60043C4F20103FD
:101350009A4204D149682CF080031943916001211D
:10136000002280F83D1080F83C20104610BD00009F
:10137000002804BF0120704710B5044690F83D00D6
:1013800028B9002084F83C00204600F01FF8022015
:1013900084F83D002068211D00F0B6FE012084F88D
:1013A000460084F83E0084F83F0084F8400084F84A
:1013B000410084F8420084F8430084F8440084F833
:1013C000450084F83D00002010BD000010B582B03B
:1013D000006841F20041C4F20001884214D041F299
:1013E0000001C4F20001884224D141F21C00C4F281
:1013F00002000168362441F010010160006800F02D
:101400001000019001980DE041F21C00C4F20200AE
:101410000168372441F020010160006800F02000DD
:1014200000900098204600210022FFF779FB20461B
:10143000FFF772FB02B010BD90F83D1001291CBFF0
:1014400001207047022180F83D10006840F6FF320D
:10145000C168C4F20002904241F00101C1600FDC9A
:10146000B0F1804F1ED040F20041C4F2000188422A
:1014700018D040F60001C4F20001884212D018E0F2
:1014800040F60041C4F2000188420BD043F2004113
:10149000C4F20101884205D042F60041C4F20101C4
:1014A000884206D1816801F00701062904BF0020A7
:1014B0007047016841F001010160002070470000A1
:1014C000002804BF012070472DE9F047044690F83A
:1014D0003D000D4628B9002084F83C00204600F06D
:1014E00049F8022084F83D00206844F20702816830
:1014F00091438160211D00F007FE20684FF6FF78C0
:1015000081688269D0F820C0D5E9003ED5E9026A39
:1015100043EA0109AB6922EA080246EA03234FF6CF
:10152000FC46B343D5E9076742EA0A0229691A4330
:1015300042EA062242EA01112CF022026B6942EAD9
:101540000E0241EA073142EA0312C0F808908161B5
:101550000262012084F8460084F83E0084F83F00CF
:1015600084F8420084F8430084F83D000020BDE880
:10157000F087000080B586B000210591CDE9031108
:10158000006840F60002C4F200029042029134D09A
:1015900040F20041C4F2000188424FD141F21800EC
:1015A000C4F20200416841F002014160416801F06B
:1015B000020101910199016841F010010160006888
:1015C00002A900F0100001900198C02002900020B4
:1015D000CDE9030040F60040C4F2010000F5806050
:1015E000FFF72EF90420C4F20100016841F0E06128
:1015F00041F44061016006B080BD41F21800C4F2C0
:101600000200426842F004024260426802F00402B2
:101610000192019A026842F008020260006800F03C
:10162000080001900198C020CDE9020140F6004079
:101630000491C4F2010002A9FFF702F906B080BDCF
:1016400010B5044690F83E0094F83F2094F84230DC
:1016500094F843C0042907D089B901284FF001004C
:1016600008BF012B23D010BD012A4FF0010008BF95
:10167000BCF1010FF7D1022084F83F0012E00128ED
:101680004FF0010008BF012AEDD1012BEBD1BCF1D5
:10169000010F18BF10BD022084F83E0084F83F00FF
:1016A00084F8420084F84300042907D10EE00220A8
:1016B00084F83E0084F84200042907D009B90021CB
:1016C00005E020680021012200F08AFD0421206845
:1016D000012200F085FD2068016841F001010160F0
:1016E000002010BD7047000010B504460068016975
:1016F000890744BFC1685FEA817138D420680169F5
:10170000490744BFC1685FEA41713CD42068016960
:10171000090744BFC1685FEA017141D420680169CB
:10172000C90644BFC1685FEAC16145D42068016948
:10173000C9071CBFC1685FEAC1714AD1206801694D
:10174000090644BFC1685FEA016149D420680169A4
:10175000490644BFC1685FEA416148D42068016915
:10176000890644BFC1685FEA816147D410BD6FF04C
:1017700002010161012121778069800745D020465F
:10178000FFF7B0FF47E06FF004010161022121770C
:10179000806910F4407F41D02046FFF7A3FF43E06B
:1017A0006FF00801016104212177C06980073ED0F4
:1017B0002046FFF797FF40E06FF01001016108211C
:1017C0002177C06910F4407F3AD02046FFF78AFFA6
:1017D0003CE06FF001010161204600F08BF9ADE7BC
:1017E0006FF0800101612046FFF74CFDAEE76FF01E
:1017F00040010161204600F09FF9AFE76FF0200142
:1018000001612046FFF740FD10BD204600F05EF864
:10181000204600F001F9002020776FE7204600F015
:1018200055F8204600F0F8F8002020776EE72046B3
:1018300000F04CF8204600F0EFF8002020776DE72C
:10184000204600F043F8204600F0E6F8002020771C
:101850006CE7000080B586B00021CDE90411006876
:101860000391B0F1804F029115D042F60041C4F2CD
:101870000101884228D141F21800C4F20200016837
:1018800041F004010160006800F00400019001983B
:101890004FF410600DE041F21800C4F2020001683C
:1018A00041F004010160006800F00400019001981B
:1018B0000420029002200390059040F60000C4F23C
:1018C000010002A9FEF7BCFF06B080BD7047000012
:1018D000B0B5044690F83C00012804BF0220B0BD1A
:1018E0004FEAB2000D460121032884F83C1036D897
:1018F000DFE800F0020A12222068294600F090FC7E
:10190000206850F8181F0EE02068294600F0BEFC41
:10191000206850F8181F16E02068294600F0F0FCF7
:10192000206850F81C1F41F008010160016821F097
:101930000401016029690FE02068294600F01AFDC2
:10194000206850F81C1F41F400610160016821F417
:101950008061016029690902026811430160002069
:1019600084F83C00B0BD0000002804BF012070478F
:1019700010B5044690F83D0028B9002084F83C00DA
:10198000204600F01FF8022084F83D002068211D49
:1019900000F0BAFB012084F8460084F83E0084F889
:1019A0003F0084F8400084F8410084F8420084F845
:1019B000430084F8440084F8450084F83D0000208A
:1019C00010BD000082B00068B0F1804F14D042F624
:1019D0000041C4F2010188421BD141F21800C4F257
:1019E0000200016841F400610160006800F40060D9
:1019F0000190019802B0704741F21800C4F2020051
:101A0000416841F001014160406800F00100009030
:101A1000009802B0704700007047000010B50446FF
:101A200041B1082909D0042914BF04F1410004F18F
:101A30003F0004E004F13E0001E004F140000078C2
:101A400001281CBF012010BD022041B1082909D086
:101A5000042914BF84F8410084F83F0004E084F8AE
:101A60003E0001E084F840002068012200F0B8FB4D
:101A7000206843F20041C4F20101884205D042F6D9
:101A80000042C4F20102904203D1426C42F400428F
:101A9000426440F6FF32C4F2000290420FDCB0F123
:101AA000804F1AD040F20041C4F20001884214D0A5
:101AB00040F60001C4F2000188420ED014E040F666
:101AC0000042C4F20002904207D0884205D042F69C
:101AD0000041C4F20101884206D1816801F007018A
:101AE000062904BF002010BD016841F0010101601A
:101AF000002010BD80B5006841F20041C4F2000131
:101B0000884215D041F20001C4F20001884218BF9A
:101B100080BD40F25C20C2F2000040F2A422818C21
:101B2000C2F20002938C01318184581C908480BDE4
:101B3000FEF782FC80BD000070470000FEE7000059
:101B4000B0B584B040F2700042F200410024C2F20D
:101B50000000C4F2010101254FF460234FF48072AC
:101B600005730475C361C0E9001402210394CDE933
:101B7000014482600161FEF78FFD002818BFFEF767
:101B80003BFC0620CDE9010540F27000C2F20000E6
:101B900001A90394FEF7FAFC002818BFFEF72CFCFD
:101BA0000220029040F27000C2F2000001A9FEF78C
:101BB000EDFC002818BFFEF71FFC04B0B0BD00000C
:101BC00070B586B0002541F21800CDE90455CDE985
:101BD0000255C4F20200016840F6004441F02001C1
:101BE00001600168C4F2010401F020010191019932
:101BF0000168012241F0040101600168012601F041
:101C0000040101910199016841F008010160016836
:101C100001F0080101910199016841F01001016092
:101C20000068052100F01000019001982046FEF7A1
:101C3000FBFE20460A210022FEF7F6FE0F20CDE92A
:101C400002060220059002A920460495FEF7F8FD41
:101C500006B070BD10B592B040F2A00042F600414F
:101C60000024C2F20000C4F2010163231194CDE903
:101C70000F44CDE90D44CDE90B44CDE90944CDE94C
:101C80000744CDE90544CDE90344CDE901444722A9
:101C900080E81600C0E90334C0E90544FFF764FE9C
:101CA000002818BFFEF7A8FB40F2A000C2F2000017
:101CB00010A9CDE91044FFF70FFB002818BFFEF76D
:101CC0009BFB602009900020CDE90A00CDE90C00C3
:101CD000CDE90E0040F2A000C2F2000009A90022E6
:101CE000FFF7F6FD002818BFFEF786FB40F2A000C4
:101CF000C2F2000009A90C22FFF7EAFD002818BF74
:101D0000FEF77AFB00200590CDE90300CDE9010044
:101D10004FF40051089040F2A0000691C2F200007A
:101D200001A9FFF7B3FA002818BFFEF765FB40F2E0
:101D3000A000C2F20000FFF78DFD12B010BD000040
:101D400010B58AB040F2E8000024C2F200004FF063
:101D5000804140F2CF730994CDE90744CDE90544B1
:101D6000CDE90344CDE90144232280E81600C0E90F
:101D700003348461FFF7F8FD002818BFFEF73CFB31
:101D800040F2E800C2F2000008A9CDE90844FFF7DC
:101D9000A3FA002818BFFEF72FFB60200190002057
:101DA000CDE90200059040F2E800C2F2000001A96E
:101DB0000822FFF78DFD002818BFFEF71DFB40F23B
:101DC000E800C2F20000FFF745FD0AB010BD0000B8
:101DD000B0B58CB003AC20462421FEF717FA40F2D0
:101DE000301040F200410025C2F20000C4F20001B0
:101DF0004FF6FF72C0E900150321C0E90252CDE998
:101E0000031501210522CDE90515CDE90725CDE909
:101E100009152146CDE90055056185610B92FFF753
:101E20004FFB002818BFFEF7E7FA40F23010C2F26D
:101E300000006946CDE90055FFF74EFA002818BFAB
:101E4000FEF7DAFA0CB0B0BDB0B58CB003AC2046EA
:101E50002421FEF7DBF940F2781040F6000100255E
:101E6000C2F20000C4F200014FF6FF72C0E9001593
:101E70000321C0E90252CDE9031501210522CDE974
:101E80000515CDE90725CDE909152146CDE9005510
:101E9000056185610B92FFF713FB002818BFFEF761
:101EA000ABFA40F27810C2F200006946CDE9005565
:101EB000FFF712FA002818BFFEF79EFA0CB0B0BD6B
:101EC00010B582B040F2C01041F200010024C2F20D
:101ED0000000C4F2000140F2F313CDE9004440F2E7
:101EE000CF2280E81600C3608461FFF741FA002822
:101EF00018BFFEF781FA40F2C010C2F20000694636
:101F0000CDE90044FFF7E8F9002818BFFEF774FA9E
:101F100002B010BD10B582B040F2082041F200417D
:101F20000024C2F20000C4F2000142F20F73CDE9B6
:101F3000004440F2CF2280E81600C3608461FFF7BE
:101F400017FA002818BFFEF757FA40F20820C2F22D
:101F500000006946CDE90044FFF7BEF9002818BF2C
:101F6000FEF74AFA02B010BDFEE70000FEE70000EF
:101F700000F0070080F00703042B28BF04234FF074
:101F8000FF3C03380CFA03F338BF0020994381402B
:101F90000CFA00F022EA000008437047B0B540F2A6
:101FA000A004C2F20004204600210025FFF736FD00
:101FB00020460C21FFF732FD40F2E800C2F200009B
:101FC0000821FFF72BFD42F63440C4F20100056002
:101FD000C5603C20C4F200004FF47A710160B0BDCE
:101FE0007047000081B040F20000C2F200000068BB
:101FF00044F6D351C1F26201A0FB0101480A0090EE
:1020000000BF0098411E00280091F9D101B070472F
:1020100070470000B0B501380024B4EB106F1CBF4E
:102020000120B0BD4EF21005CEF2000568604FF001
:10203000FF300F2100F0E4F90720AC602860204653
:10204000B0BD000080B5FEF7FBFC80BD70B596B05A
:102050000CAC20462821FEF7D9F8002501204FF4CA
:1020600080310C90CDE90D15109002264FF4E01050
:10207000CDE91361159020460B95CDE90955CDE9C1
:102080000755CDE90555CDE90355CDE90155FEF7D5
:102090006BFFC0B90F20CDE907064FF480600995AA
:1020A000CDE90A0507A80221FEF75EFE58B9022015
:1020B00001904FF40040039001A8FEF7CDFD0028E9
:1020C00004BF16B070BDFEF797F90000704700001E
:1020D00080B5FEF781F9FEF773F9FFF75FFF00F0B7
:1020E00091F8FEF78FF980BD80B540F2C010C2F2C2
:1020F0000000FFF7F9FA80BD80B540F20820C2F277
:102100000000FFF7F1FA80BD10B540F6FF3E03680E
:10211000C4F2000E43F2004C7045C4F2010C20DC06
:10212000B0F1804F2BD040F20042C4F20002904246
:1021300025D040F60002C4F2000290421FD0704544
:1021400023DCB0F1804F2ED040F20042C4F20002F6
:10215000904228D040F60002C4F20002904222D001
:1021600025E040F60042C4F20002904207D06045EC
:1021700005D042F60042C4F201029042DFD14A6823
:1021800023F0700313437045DBDD40F60042C4F2D8
:102190000002904207D0604505D042F60042C4F2EA
:1021A0000102904203D1CA6823F44073134323F021
:1021B00080024B69D1F800E08C681A4360450260E8
:1021C000C462C0F828E005D042F60042C4F2010221
:1021D000904201D1096901630121416110BD0000F4
:1021E00080B501F01F014FF0010CD0F820E00CFA8F
:1021F00001F32EEA03030362036A02FA01F11943B1
:10220000016280BD80B540F2C010C2F20000FFF74D
:1022100013F940F20820C2F20000FFF70DF980BD6B
:1022200070B5026A42F6004E22F001020262026AB2
:10223000466884690B6824F073048D6844EA030CD3
:1022400043F2004422F00202C4F201042A43A042F5
:10225000C4F2010E01D0704505D1CB6822F00C020A
:1022600023F004031A43A04201D0704506D126F49E
:102270004073D1E90565334343EA05064660C0F87B
:1022800018C049684163026270BD000070B5026AFF
:1022900042F6004E22F010020262026A4668846929
:1022A0000B6824F4E6448D6844EA032C43F20044AE
:1022B00022F02002C4F2010442EA0512A042C4F254
:1022C000010E01D0704507D1CB686FF0400522F0B8
:1022D000C00205EA03131A43A04201D0704507D19A
:1022E00026F44063D1E9056543EA860343EA85069F
:1022F0004660C0F818C049688163026270BD000082
:1023000070B5026A42F6004E22F480720262026ADE
:102310004668C4690B6824F073048D6844EA030CB2
:1023200043F2004422F40072C4F2010442EA05229E
:10233000A042C4F2010E01D0704507D1CB6840F233
:10234000FF451B0222F44062AB431A43A04201D076
:10235000704507D126F44053D1E9056543EA0613D9
:1023600043EA05164660C0F81CC04968C1630262B2
:1023700070BD0000B0B5026A22F480520262D0F84B
:1023800020E04468C3690A6823F4E6438D6843EAA1
:10239000022C43F200432EF40052C4F2010398428F
:1023A00042EA053305D042F60042C4F201029042EF
:1023B00004D14A6924F4804545EA82144460C0F897
:1023C0001CC0496801640362B0BD0000FEE7000064
:1023D000002848BF704700F01F01012202FA01F1F6
:1023E0004EF200124009CEF2000242F8201070476F
:1023F0004EF60C50CEF200000068C0F30220704789
:102400004EF6145300F00F02CEF2000309011A44F5
:1024100000F16043B0F1FF3FC8BF03F564421170A3
:10242000704700004EF60C51CEF200010A684FF6DC
:10243000FF031A4060F30A2242F0806040F0FD7012
:1024400008607047FEF70AFBFFF700FEFFF7B8FBD6
:10245000FFF776FBFFF7FEFBFFF772FCFFF7B8FC18
:10246000FFF7F2FCFFF756FDFFF72AFDFFF730FEFE
:10247000FEE7000000000000000001020304060760
:10248000080900000000010203040000B024000855
:1024900000000020100000006C010008C0240008AB
:1024A00010000020D808000088010008000000008B
:1024B0000024F400010000001000000000000000F3
:0400000508000131BD
:00000001FF
